:02000000B92B1A
:10000800FF00030E83018316BC000A08BB008A01A7
:1000180070088312A0000B1D2628EB0A0319EC0AAE
:1000280000306C06031D1A28F5306B06031D2528C1
:100038008316A00A0319A10A8312EB01EC01DC3034
:1000480081000B118B1C2A28A5238B1083122008F2
:10005800F00083163B088A003C0E8300FF0E7F0EDB
:0200680009008D
:04006A00000008008A
:10006E00083083120313FC002330FD00FD0B3D28E6
:06007E00FC0B3D28080008
:10008400103083120313FD00FD0B46280000080006
:1000940083160313C21B5128831287125328831219
:1000A40087168316421B5928831207125B28831272
:1000B40007168316C21A61288312871163288312D4
:1000C40087158316421A6928831207116B28831235
:1000D40007156F186F280714702807108714352028
:1000E40087108316C2197928831287127B288312FA
:1000F40087168316421981288312071283288312D4
:1001040007168316C2188928831287118B28831235
:100114008715831642189128831207119328831296
:1001240007156F1897280714982807108714352087
:0E01340087106F1C9F283720A028422008004B
:10014200831203136F1083164108C2004A206F14F2
:020152000800A3
:10015400710DF80DF90D7408F8027508031C750F7C
:10016400F902F00DF10D0F30FC00710DF80DF90DD1
:100174007408701CC328F8027508031C750FF90273
:10018400C828F80775080318750FF907F00DF10D65
:10019400FC0BB7287018D4287408F80775080318DE
:0801A400750FF90700000800C7
:0E01AC00831603133A088A00390882000800FF
:1001BA00831203137408003A031DEC287508003AE9
:1001CA00031DEC28FF30F0007F30F100452983122F
:1001DA000313FD01F901F8017108700403190034D1
:1001EA0071087506FA00FA1BFD09FB01F51F0229C1
:1001FA00F409F509F40A0319F50AF11F0929F009A6
:10020A00F109F00A0319F10A71087504FA00FA1BD8
:10021A001E29AA207B183129FD1F0034F009F10993
:10022A00F00A0319F10AF809F909F80A0319F90A8F
:10023A000034F51F2D29F11B29297108F9007008CE
:10024A00F800F101F0011129F101F001F00A00347E
:10025A00F109F009FB0A0E29F80A0319F90A7408C8
:10026A007802031D112975087902031D1129F90164
:10027A00F801F00A0319F10AF11F11290000FF34ED
:02028A0008006A
:10028C005829803083160313BD006B29C030BD0084
:10029C006B299430BD006B29D430BD006B298030A4
:1002AC00BD006B29831603133D08013A0319472936
:1002BC003D08023A03194C293D08033A03194F290A
:1002CC003D08043A0319522955293E03F0003D0814
:1002DC00F0077008BD007008C2004A206F1083162A
:1002EC00C00140083F078400000803198629400814
:1002FC003F0784000008C100A1208316C00A77299B
:06030C0083126F140800CB
:10031200831603138710071007118711071287121C
:1003220083128710071087120712871107113720CF
:100332003720372087150715871435208710372077
:1003420087143520871037208714352087103720EF
:10035200071187143520871037208714352087101E
:1003620087118716871435208710372087120715C3
:1003720087143520871007118714352087103720FE
:1003820087143520871007158714352087103720EA
:10039200071187143520871087160716871507154A
:0C03A20087143520871037206F140800E6
:1003AE000A3083120313F4000030F5002E08F0001B
:1003BE002F08F100DD207808F0007908F1003030C8
:1003CE007007A8000A30F4000030F5002E08F00087
:1003DE002F08F100DD2030307007A7000A30F4003E
:1003EE000030F5003508F0003608F100DD20780801
:1003FE00F0007908F10030307007A5000A30F400E3
:10040E000030F5003508F0003608F100DD20303000
:10041E007007A4000A30F4000030F5003308F00035
:10042E003408F100DD207808F0007908F100303052
:10043E007007A2000A30F4000030F5003308F00017
:10044E003408F100DD2030307007A1000A30F400CE
:10045E000030F5006108F0006208F100DD20780838
:10046E00F0007908F10030307007B1000A30F40066
:10047E000030F5006108F0006208F100DD20303038
:10048E007007B0000A30F4000030F5008316220821
:10049E00F0002308F100DD207808F0007908F10063
:1004AE003030F00770088316A7007008A6000A30D7
:1004BE00F4000030F5002208F0002308F100DD20E2
:1004CE00303070078316A50032307007A400080084
:1004DE0083120313081C822AB30A0319B40A0230CA
:1004EE00FB008630FC009930FD00FD0B7C2AFC0BD6
:1004FE007C2AFB0B7C2A881C942A0130B302031C35
:10050E00B4030230FB008630FC009930FD00FD0B79
:10051E008E2AFC0B8E2AFB0B8E2A081DA52AB50AE5
:10052E000319B60A0230FB008630FC009930FD003C
:10053E00FD0B9F2AFC0B9F2AFB0B9F2A881DB72AB7
:10054E000130B502031CB6030230FB008630FC00FE
:10055E009930FD00FD0BB12AFC0BB12AFB0BB12A21
:02056E00080083
:100570000030831603132106031DC02A0130200614
:10058000031DD92A0230BD001430BE00AB30BF00BD
:10059000462102308316BD000D30BE006730BF001B
:1005A000462102308316BD000A30BE006530BF0010
:1005B0004621003083162106031DE02A0030200664
:1005C000031DF92A0230BD001430BE006330BF00A5
:1005D000462102308316BD000D30BE006930BF00D9
:1005E000462102308316BD000A30BE006D30BF00C8
:0405F0004621080098
:1005F400013083160313BD000130BE004C30BF0030
:10060400462104308316BD000130BE003730BF00E0
:10061400462103308316BD001030BE002C30BF00CD
:10062400462103308316BD000C30BE002A30BF00C3
:040634004621080053
:1006380089210C308316C2004A2001308316C2007B
:100648004A20880186010F3083168800B0308B005D
:1006580092308100F7308312810002308316BD008A
:100668000330BE00B330BF00462103308316BD00FF
:0C0678000330BE00AD30BF00462108007A
:100684000030831603132106031D4A2B0230200673
:10069400031D532B8312AE0A0319AF0A8316A0015C
:1006A400A101003083122F06031D5A2B3C302E0665
:1006B400031D612BB50A0319B60AAE01AF01003060
:1006C4003606031D672B3C303506031D6E2BB30A1B
:1006D4000319B40AB501B60100303406031D742BA6
:1006E40018303306031D7B2BE10A0319E20AB30118
:1006F400B40100306206031D812B1E306106031D08
:100704008A2B8316A90A0319AA0A8312E101E201BA
:10071400003083162A06031D912B0C302906031D75
:0E072400982BA20A0319A30AA901AA01080032
:10073200D6208A110A128000840AB90A0319BA0A59
:08074200F003031D992B0800D0
:10074A0083120313AE01AF01B501B601B301B401BF
:10075A000130E1000030E20001308316A9000030C8
:08076A00AA00A201A30108008E
:1007720048241C234223D721FA2202308316BD00CB
:100782000830BE002130BF004621B8220330831654
:100792000313BD000830BE00A430BF004621033061
:1007A2008316BD001130BE003030BF0046216F22DB
:0407B200BB2BDA2B58
:10089000213084004E3083120313F000E0308316C1
:1008A000B9000330BA009923A030840019308312B4
:1008B000F0002E308316B9000430BA0099230800E6
:1007C0006834683420346D346D34203473347334B9
:0207D0000034F3
:0407D2002D3400348E
:0407D6002D3400348A
:0407DA0000340034B3
:0607DE00643464340034B1
:0407E40000340034A9
:0407E80000340034A5
:1007EC002D342D342D342D342D34423479344D3474
:1007FC0065347434683473346134723461342D3438
:0A080C002D342D342D342D3400342A
:100816002D342D342D342D342D342D342D342D34CA
:1008260043344C344F3443344B342D342D342D342F
:0A0836002D342D342D342D34003400
:04084000013400344B
:040844002034003428
:040848003A3400340A
:04084C003A34003406
:04085000203400341C
:040854000034003438
:040858002034003414
:04085C000034003430
:04086000003400342C
:0A08640079347934793479340034A2
:04086E00013400341D
:040872002E340034EC
:0C08760044346134743465343A34003486
:0C088200543469346D3465343A34003469
:02400E004A2F37
:00000001FF
